{
  "contractName": "AlphaBytes",
  "abi": [
    {
      "inputs": [
        {
          "internalType": "string",
          "name": "_name",
          "type": "string"
        },
        {
          "internalType": "string",
          "name": "_symbol",
          "type": "string"
        },
        {
          "internalType": "string",
          "name": "_initBaseURI",
          "type": "string"
        },
        {
          "internalType": "string",
          "name": "_initNotRevealedUri",
          "type": "string"
        }
      ],
      "stateMutability": "nonpayable",
      "type": "constructor"
    },
    {
      "anonymous": false,
      "inputs": [
        {
          "indexed": true,
          "internalType": "address",
          "name": "owner",
          "type": "address"
        },
        {
          "indexed": true,
          "internalType": "address",
          "name": "approved",
          "type": "address"
        },
        {
          "indexed": true,
          "internalType": "uint256",
          "name": "tokenId",
          "type": "uint256"
        }
      ],
      "name": "Approval",
      "type": "event"
    },
    {
      "anonymous": false,
      "inputs": [
        {
          "indexed": true,
          "internalType": "address",
          "name": "owner",
          "type": "address"
        },
        {
          "indexed": true,
          "internalType": "address",
          "name": "operator",
          "type": "address"
        },
        {
          "indexed": false,
          "internalType": "bool",
          "name": "approved",
          "type": "bool"
        }
      ],
      "name": "ApprovalForAll",
      "type": "event"
    },
    {
      "anonymous": false,
      "inputs": [
        {
          "indexed": false,
          "internalType": "uint256",
          "name": "tokenId",
          "type": "uint256"
        },
        {
          "indexed": true,
          "internalType": "address",
          "name": "account",
          "type": "address"
        }
      ],
      "name": "Claimed",
      "type": "event"
    },
    {
      "anonymous": false,
      "inputs": [
        {
          "indexed": true,
          "internalType": "address",
          "name": "previousOwner",
          "type": "address"
        },
        {
          "indexed": true,
          "internalType": "address",
          "name": "newOwner",
          "type": "address"
        }
      ],
      "name": "OwnershipTransferred",
      "type": "event"
    },
    {
      "anonymous": false,
      "inputs": [
        {
          "indexed": true,
          "internalType": "address",
          "name": "from",
          "type": "address"
        },
        {
          "indexed": true,
          "internalType": "address",
          "name": "to",
          "type": "address"
        },
        {
          "indexed": true,
          "internalType": "uint256",
          "name": "tokenId",
          "type": "uint256"
        }
      ],
      "name": "Transfer",
      "type": "event"
    },
    {
      "inputs": [
        {
          "internalType": "address",
          "name": "",
          "type": "address"
        }
      ],
      "name": "addressMintedBalance",
      "outputs": [
        {
          "internalType": "uint256",
          "name": "",
          "type": "uint256"
        }
      ],
      "stateMutability": "view",
      "type": "function"
    },
    {
      "inputs": [
        {
          "internalType": "address",
          "name": "to",
          "type": "address"
        },
        {
          "internalType": "uint256",
          "name": "tokenId",
          "type": "uint256"
        }
      ],
      "name": "approve",
      "outputs": [],
      "stateMutability": "nonpayable",
      "type": "function"
    },
    {
      "inputs": [
        {
          "internalType": "address",
          "name": "owner",
          "type": "address"
        }
      ],
      "name": "balanceOf",
      "outputs": [
        {
          "internalType": "uint256",
          "name": "",
          "type": "uint256"
        }
      ],
      "stateMutability": "view",
      "type": "function"
    },
    {
      "inputs": [],
      "name": "baseExtension",
      "outputs": [
        {
          "internalType": "string",
          "name": "",
          "type": "string"
        }
      ],
      "stateMutability": "view",
      "type": "function"
    },
    {
      "inputs": [],
      "name": "baseURI",
      "outputs": [
        {
          "internalType": "string",
          "name": "",
          "type": "string"
        }
      ],
      "stateMutability": "view",
      "type": "function"
    },
    {
      "inputs": [
        {
          "internalType": "uint256",
          "name": "",
          "type": "uint256"
        }
      ],
      "name": "claimed",
      "outputs": [
        {
          "internalType": "bool",
          "name": "",
          "type": "bool"
        }
      ],
      "stateMutability": "view",
      "type": "function"
    },
    {
      "inputs": [],
      "name": "cost",
      "outputs": [
        {
          "internalType": "uint256",
          "name": "",
          "type": "uint256"
        }
      ],
      "stateMutability": "view",
      "type": "function"
    },
    {
      "inputs": [
        {
          "internalType": "uint256",
          "name": "tokenId",
          "type": "uint256"
        }
      ],
      "name": "getApproved",
      "outputs": [
        {
          "internalType": "address",
          "name": "",
          "type": "address"
        }
      ],
      "stateMutability": "view",
      "type": "function"
    },
    {
      "inputs": [
        {
          "internalType": "address",
          "name": "owner",
          "type": "address"
        },
        {
          "internalType": "address",
          "name": "operator",
          "type": "address"
        }
      ],
      "name": "isApprovedForAll",
      "outputs": [
        {
          "internalType": "bool",
          "name": "",
          "type": "bool"
        }
      ],
      "stateMutability": "view",
      "type": "function"
    },
    {
      "inputs": [],
      "name": "maxMintAmount",
      "outputs": [
        {
          "internalType": "uint256",
          "name": "",
          "type": "uint256"
        }
      ],
      "stateMutability": "view",
      "type": "function"
    },
    {
      "inputs": [],
      "name": "maxSupply",
      "outputs": [
        {
          "internalType": "uint256",
          "name": "",
          "type": "uint256"
        }
      ],
      "stateMutability": "view",
      "type": "function"
    },
    {
      "inputs": [
        {
          "internalType": "uint256",
          "name": "",
          "type": "uint256"
        }
      ],
      "name": "minted",
      "outputs": [
        {
          "internalType": "bool",
          "name": "",
          "type": "bool"
        }
      ],
      "stateMutability": "view",
      "type": "function"
    },
    {
      "inputs": [],
      "name": "name",
      "outputs": [
        {
          "internalType": "string",
          "name": "",
          "type": "string"
        }
      ],
      "stateMutability": "view",
      "type": "function"
    },
    {
      "inputs": [],
      "name": "nftPerAddressLimit",
      "outputs": [
        {
          "internalType": "uint256",
          "name": "",
          "type": "uint256"
        }
      ],
      "stateMutability": "view",
      "type": "function"
    },
    {
      "inputs": [],
      "name": "notRevealedUri",
      "outputs": [
        {
          "internalType": "string",
          "name": "",
          "type": "string"
        }
      ],
      "stateMutability": "view",
      "type": "function"
    },
    {
      "inputs": [],
      "name": "onlyWhitelisted",
      "outputs": [
        {
          "internalType": "bool",
          "name": "",
          "type": "bool"
        }
      ],
      "stateMutability": "view",
      "type": "function"
    },
    {
      "inputs": [],
      "name": "owner",
      "outputs": [
        {
          "internalType": "address",
          "name": "",
          "type": "address"
        }
      ],
      "stateMutability": "view",
      "type": "function"
    },
    {
      "inputs": [
        {
          "internalType": "uint256",
          "name": "tokenId",
          "type": "uint256"
        }
      ],
      "name": "ownerOf",
      "outputs": [
        {
          "internalType": "address",
          "name": "",
          "type": "address"
        }
      ],
      "stateMutability": "view",
      "type": "function"
    },
    {
      "inputs": [],
      "name": "paused",
      "outputs": [
        {
          "internalType": "bool",
          "name": "",
          "type": "bool"
        }
      ],
      "stateMutability": "view",
      "type": "function"
    },
    {
      "inputs": [],
      "name": "renounceOwnership",
      "outputs": [],
      "stateMutability": "nonpayable",
      "type": "function"
    },
    {
      "inputs": [],
      "name": "revealed",
      "outputs": [
        {
          "internalType": "bool",
          "name": "",
          "type": "bool"
        }
      ],
      "stateMutability": "view",
      "type": "function"
    },
    {
      "inputs": [
        {
          "internalType": "address",
          "name": "from",
          "type": "address"
        },
        {
          "internalType": "address",
          "name": "to",
          "type": "address"
        },
        {
          "internalType": "uint256",
          "name": "tokenId",
          "type": "uint256"
        }
      ],
      "name": "safeTransferFrom",
      "outputs": [],
      "stateMutability": "nonpayable",
      "type": "function"
    },
    {
      "inputs": [
        {
          "internalType": "address",
          "name": "from",
          "type": "address"
        },
        {
          "internalType": "address",
          "name": "to",
          "type": "address"
        },
        {
          "internalType": "uint256",
          "name": "tokenId",
          "type": "uint256"
        },
        {
          "internalType": "bytes",
          "name": "_data",
          "type": "bytes"
        }
      ],
      "name": "safeTransferFrom",
      "outputs": [],
      "stateMutability": "nonpayable",
      "type": "function"
    },
    {
      "inputs": [
        {
          "internalType": "address",
          "name": "operator",
          "type": "address"
        },
        {
          "internalType": "bool",
          "name": "approved",
          "type": "bool"
        }
      ],
      "name": "setApprovalForAll",
      "outputs": [],
      "stateMutability": "nonpayable",
      "type": "function"
    },
    {
      "inputs": [
        {
          "internalType": "bytes4",
          "name": "interfaceId",
          "type": "bytes4"
        }
      ],
      "name": "supportsInterface",
      "outputs": [
        {
          "internalType": "bool",
          "name": "",
          "type": "bool"
        }
      ],
      "stateMutability": "view",
      "type": "function"
    },
    {
      "inputs": [],
      "name": "symbol",
      "outputs": [
        {
          "internalType": "string",
          "name": "",
          "type": "string"
        }
      ],
      "stateMutability": "view",
      "type": "function"
    },
    {
      "inputs": [
        {
          "internalType": "uint256",
          "name": "index",
          "type": "uint256"
        }
      ],
      "name": "tokenByIndex",
      "outputs": [
        {
          "internalType": "uint256",
          "name": "",
          "type": "uint256"
        }
      ],
      "stateMutability": "view",
      "type": "function"
    },
    {
      "inputs": [
        {
          "internalType": "address",
          "name": "owner",
          "type": "address"
        },
        {
          "internalType": "uint256",
          "name": "index",
          "type": "uint256"
        }
      ],
      "name": "tokenOfOwnerByIndex",
      "outputs": [
        {
          "internalType": "uint256",
          "name": "",
          "type": "uint256"
        }
      ],
      "stateMutability": "view",
      "type": "function"
    },
    {
      "inputs": [],
      "name": "totalSupply",
      "outputs": [
        {
          "internalType": "uint256",
          "name": "",
          "type": "uint256"
        }
      ],
      "stateMutability": "view",
      "type": "function"
    },
    {
      "inputs": [],
      "name": "totalsupply",
      "outputs": [
        {
          "internalType": "uint256",
          "name": "",
          "type": "uint256"
        }
      ],
      "stateMutability": "view",
      "type": "function"
    },
    {
      "inputs": [
        {
          "internalType": "address",
          "name": "from",
          "type": "address"
        },
        {
          "internalType": "address",
          "name": "to",
          "type": "address"
        },
        {
          "internalType": "uint256",
          "name": "tokenId",
          "type": "uint256"
        }
      ],
      "name": "transferFrom",
      "outputs": [],
      "stateMutability": "nonpayable",
      "type": "function"
    },
    {
      "inputs": [
        {
          "internalType": "address",
          "name": "newOwner",
          "type": "address"
        }
      ],
      "name": "transferOwnership",
      "outputs": [],
      "stateMutability": "nonpayable",
      "type": "function"
    },
    {
      "inputs": [],
      "name": "whitelistCost",
      "outputs": [
        {
          "internalType": "uint256",
          "name": "",
          "type": "uint256"
        }
      ],
      "stateMutability": "view",
      "type": "function"
    },
    {
      "inputs": [
        {
          "internalType": "address",
          "name": "",
          "type": "address"
        }
      ],
      "name": "whitelistedAddresses",
      "outputs": [
        {
          "internalType": "bool",
          "name": "",
          "type": "bool"
        }
      ],
      "stateMutability": "view",
      "type": "function"
    },
    {
      "inputs": [
        {
          "internalType": "uint256",
          "name": "_mintAmount",
          "type": "uint256"
        }
      ],
      "name": "mint",
      "outputs": [],
      "stateMutability": "payable",
      "type": "function"
    },
    {
      "inputs": [
        {
          "internalType": "uint256[]",
          "name": "_tokenIds",
          "type": "uint256[]"
        },
        {
          "internalType": "address",
          "name": "_to",
          "type": "address"
        }
      ],
      "name": "gift",
      "outputs": [],
      "stateMutability": "nonpayable",
      "type": "function"
    },
    {
      "inputs": [
        {
          "internalType": "address",
          "name": "_user",
          "type": "address"
        }
      ],
      "name": "isWhitelisted",
      "outputs": [
        {
          "internalType": "bool",
          "name": "",
          "type": "bool"
        }
      ],
      "stateMutability": "view",
      "type": "function"
    },
    {
      "inputs": [
        {
          "internalType": "uint256",
          "name": "_tokenId",
          "type": "uint256"
        }
      ],
      "name": "claim",
      "outputs": [],
      "stateMutability": "nonpayable",
      "type": "function"
    },
    {
      "inputs": [
        {
          "internalType": "address",
          "name": "_owner",
          "type": "address"
        }
      ],
      "name": "walletOfOwner",
      "outputs": [
        {
          "internalType": "uint256[]",
          "name": "",
          "type": "uint256[]"
        }
      ],
      "stateMutability": "view",
      "type": "function"
    },
    {
      "inputs": [
        {
          "internalType": "uint256",
          "name": "tokenId",
          "type": "uint256"
        }
      ],
      "name": "tokenURI",
      "outputs": [
        {
          "internalType": "string",
          "name": "",
          "type": "string"
        }
      ],
      "stateMutability": "view",
      "type": "function"
    },
    {
      "inputs": [],
      "name": "reveal",
      "outputs": [],
      "stateMutability": "nonpayable",
      "type": "function"
    },
    {
      "inputs": [
        {
          "internalType": "uint256",
          "name": "_limit",
          "type": "uint256"
        }
      ],
      "name": "setNftPerAddressLimit",
      "outputs": [],
      "stateMutability": "nonpayable",
      "type": "function"
    },
    {
      "inputs": [
        {
          "internalType": "address",
          "name": "newOwner",
          "type": "address"
        }
      ],
      "name": "changeOwner",
      "outputs": [],
      "stateMutability": "nonpayable",
      "type": "function"
    },
    {
      "inputs": [
        {
          "internalType": "uint256",
          "name": "_newCost",
          "type": "uint256"
        }
      ],
      "name": "setCost",
      "outputs": [],
      "stateMutability": "nonpayable",
      "type": "function"
    },
    {
      "inputs": [
        {
          "internalType": "uint256",
          "name": "_newCost",
          "type": "uint256"
        }
      ],
      "name": "setWhitelistCost",
      "outputs": [],
      "stateMutability": "nonpayable",
      "type": "function"
    },
    {
      "inputs": [
        {
          "internalType": "string",
          "name": "_newBaseURI",
          "type": "string"
        }
      ],
      "name": "setBaseURI",
      "outputs": [],
      "stateMutability": "nonpayable",
      "type": "function"
    },
    {
      "inputs": [
        {
          "internalType": "string",
          "name": "_newBaseExtension",
          "type": "string"
        }
      ],
      "name": "setBaseExtension",
      "outputs": [],
      "stateMutability": "nonpayable",
      "type": "function"
    },
    {
      "inputs": [
        {
          "internalType": "string",
          "name": "_notRevealedURI",
          "type": "string"
        }
      ],
      "name": "setNotRevealedURI",
      "outputs": [],
      "stateMutability": "nonpayable",
      "type": "function"
    },
    {
      "inputs": [
        {
          "internalType": "bool",
          "name": "_state",
          "type": "bool"
        }
      ],
      "name": "pause",
      "outputs": [],
      "stateMutability": "nonpayable",
      "type": "function"
    },
    {
      "inputs": [
        {
          "internalType": "bool",
          "name": "_state",
          "type": "bool"
        }
      ],
      "name": "setOnlyWhitelisted",
      "outputs": [],
      "stateMutability": "nonpayable",
      "type": "function"
    },
    {
      "inputs": [
        {
          "internalType": "address[]",
          "name": "_users",
          "type": "address[]"
        }
      ],
      "name": "whitelistUsers",
      "outputs": [],
      "stateMutability": "nonpayable",
      "type": "function"
    },
    {
      "inputs": [
        {
          "internalType": "address",
          "name": "_user",
          "type": "address"
        }
      ],
      "name": "whitelistUser",
      "outputs": [],
      "stateMutability": "nonpayable",
      "type": "function"
    },
    {
      "inputs": [],
      "name": "withdraw",
      "outputs": [],
      "stateMutability": "payable",
      "type": "function"
    }
  ],
  "bytecode": "0x60c06040526005608081905264173539b7b760d91b60a09081526200002891600c91906200022a565b50670b1a2bc2ec500000600e55670de0b6b3a7640000600f556091601081905560036011556012556013805462ffffff19166201000017905560006018553480156200007357600080fd5b50604051620037523803806200375283398101604081905262000096916200037b565b835184908490620000af9060009060208501906200022a565b508051620000c59060019060208401906200022a565b505050620000e2620000dc6200010260201b60201c565b62000106565b620000ed8262000158565b620000f881620001c0565b50505050620004b7565b3390565b600a80546001600160a01b038381166001600160a01b0319831681179093556040519116919082907f8be0079c531659141344cd1fd0a4f28419497f9722a3daafe3b4186f6b6457e090600090a35050565b6200016262000102565b6001600160a01b0316620001756200021b565b6001600160a01b031614620001a75760405162461bcd60e51b81526004016200019e906200042f565b60405180910390fd5b8051620001bc90600b9060208401906200022a565b5050565b620001ca62000102565b6001600160a01b0316620001dd6200021b565b6001600160a01b031614620002065760405162461bcd60e51b81526004016200019e906200042f565b8051620001bc90600d9060208401906200022a565b600a546001600160a01b031690565b828054620002389062000464565b90600052602060002090601f0160209004810192826200025c5760008555620002a7565b82601f106200027757805160ff1916838001178555620002a7565b82800160010185558215620002a7579182015b82811115620002a75782518255916020019190600101906200028a565b50620002b5929150620002b9565b5090565b5b80821115620002b55760008155600101620002ba565b600082601f830112620002e1578081fd5b81516001600160401b0380821115620002fe57620002fe620004a1565b6040516020601f8401601f1916820181018381118382101715620003265762000326620004a1565b60405283825285840181018710156200033d578485fd5b8492505b8383101562000360578583018101518284018201529182019162000341565b838311156200037157848185840101525b5095945050505050565b6000806000806080858703121562000391578384fd5b84516001600160401b0380821115620003a8578586fd5b620003b688838901620002d0565b95506020870151915080821115620003cc578485fd5b620003da88838901620002d0565b94506040870151915080821115620003f0578384fd5b620003fe88838901620002d0565b9350606087015191508082111562000414578283fd5b506200042387828801620002d0565b91505092959194509250565b6020808252818101527f4f776e61626c653a2063616c6c6572206973206e6f7420746865206f776e6572604082015260600190565b6002810460018216806200047957607f821691505b602082108114156200049b57634e487b7160e01b600052602260045260246000fd5b50919050565b634e487b7160e01b600052604160045260246000fd5b61328b80620004c76000396000f3fe60806040526004361061031a5760003560e01c80636c0360eb116101ab578063b88d4fde116100f7578063da3ef23f11610095578063e985e9c51161006f578063e985e9c5146108a0578063edec5f27146108c0578063f2c4ce1e146108e0578063f2fde38b146109005761031a565b8063da3ef23f1461084b578063dbe7e3bd1461086b578063e7b99ec71461088b5761031a565b8063c87b56dd116100d1578063c87b56dd146107d6578063d0eb26b0146107f6578063d49479eb14610816578063d5abeb01146108365761031a565b8063b88d4fde1461078c578063ba7d2c76146107ac578063c6682862146107c15761031a565b80638f44652e11610164578063a0712d681161013e578063a0712d6814610724578063a22cb46514610737578063a475b5dd14610757578063a6f9dae11461076c5761031a565b80638f44652e146106da57806395d89b41146106fa5780639c70b5121461070f5761031a565b80636c0360eb1461064657806370a082311461065b578063715018a61461067b57806372dd529b146106905780637dc0bf3f146106a55780638da5cb5b146106c55761031a565b8063379607f51161026a57806344a0d68a1161022357806351830227116101fd57806351830227146105dc57806355f804b3146105f15780635c975abb146106115780636352211e146106265761031a565b806344a0d68a1461057c5780634a4c560d1461059c5780634f6ccce7146105bc5761031a565b8063379607f5146104c75780633af32abf146104e75780633c952764146105075780633ccfd60b1461052757806342842e0e1461052f578063438b63001461054f5761031a565b8063095ea7b3116102d757806318cae269116102b157806318cae26914610452578063239c70ae1461047257806323b872dd146104875780632f745c59146104a75761031a565b8063095ea7b3146103fb57806313faede61461041b57806318160ddd1461043d5761031a565b806301ffc9a71461031f57806302329a291461035557806306c933d81461037757806306fdde0314610397578063081812fc146103b9578063081c8c44146103e6575b600080fd5b34801561032b57600080fd5b5061033f61033a3660046127c1565b610920565b60405161034c91906129dd565b60405180910390f35b34801561036157600080fd5b506103756103703660046127a7565b61094d565b005b34801561038357600080fd5b5061033f6103923660046125c3565b6109a8565b3480156103a357600080fd5b506103ac6109bd565b60405161034c91906129e8565b3480156103c557600080fd5b506103d96103d436600461283f565b610a4f565b60405161034c9190612948565b3480156103f257600080fd5b506103ac610a92565b34801561040757600080fd5b506103756104163660046126ec565b610b20565b34801561042757600080fd5b50610430610bb8565b60405161034c91906130f0565b34801561044957600080fd5b50610430610bbe565b34801561045e57600080fd5b5061043061046d3660046125c3565b610bc4565b34801561047e57600080fd5b50610430610bd6565b34801561049357600080fd5b506103756104a236600461260f565b610bdc565b3480156104b357600080fd5b506104306104c23660046126ec565b610c14565b3480156104d357600080fd5b506103756104e236600461283f565b610c66565b3480156104f357600080fd5b5061033f6105023660046125c3565b610cec565b34801561051357600080fd5b506103756105223660046127a7565b610d0a565b610375610d65565b34801561053b57600080fd5b5061037561054a36600461260f565b610e17565b34801561055b57600080fd5b5061056f61056a3660046125c3565b610e32565b60405161034c9190612999565b34801561058857600080fd5b5061037561059736600461283f565b610ef0565b3480156105a857600080fd5b506103756105b73660046125c3565b610f34565b3480156105c857600080fd5b506104306105d736600461283f565b610f97565b3480156105e857600080fd5b5061033f610ff2565b3480156105fd57600080fd5b5061037561060c3660046127f9565b611000565b34801561061d57600080fd5b5061033f611056565b34801561063257600080fd5b506103d961064136600461283f565b61105f565b34801561065257600080fd5b506103ac611094565b34801561066757600080fd5b506104306106763660046125c3565b6110a1565b34801561068757600080fd5b506103756110e5565b34801561069c57600080fd5b50610430611130565b3480156106b157600080fd5b5061033f6106c036600461283f565b611136565b3480156106d157600080fd5b506103d961114b565b3480156106e657600080fd5b506103756106f5366004612755565b61115a565b34801561070657600080fd5b506103ac611348565b34801561071b57600080fd5b5061033f611357565b61037561073236600461283f565b611366565b34801561074357600080fd5b506103756107523660046126c3565b6115ac565b34801561076357600080fd5b5061037561167a565b34801561077857600080fd5b506103756107873660046125c3565b6116ca565b34801561079857600080fd5b506103756107a736600461264a565b611712565b3480156107b857600080fd5b5061043061174b565b3480156107cd57600080fd5b506103ac611751565b3480156107e257600080fd5b506103ac6107f136600461283f565b61175e565b34801561080257600080fd5b5061037561081136600461283f565b611885565b34801561082257600080fd5b5061037561083136600461283f565b6118c9565b34801561084257600080fd5b5061043061190d565b34801561085757600080fd5b506103756108663660046127f9565b611913565b34801561087757600080fd5b5061033f61088636600461283f565b611965565b34801561089757600080fd5b5061043061197a565b3480156108ac57600080fd5b5061033f6108bb3660046125dd565b611980565b3480156108cc57600080fd5b506103756108db366004612715565b6119ae565b3480156108ec57600080fd5b506103756108fb3660046127f9565b611a6d565b34801561090c57600080fd5b5061037561091b3660046125c3565b611abf565b60006001600160e01b0319821663780e9d6360e01b1480610945575061094582611b2d565b90505b919050565b610955611b6d565b6001600160a01b031661096661114b565b6001600160a01b0316146109955760405162461bcd60e51b815260040161098c90612e7b565b60405180910390fd5b6013805460ff1916911515919091179055565b60146020526000908152604090205460ff1681565b6060600080546109cc90613193565b80601f01602080910402602001604051908101604052809291908181526020018280546109f890613193565b8015610a455780601f10610a1a57610100808354040283529160200191610a45565b820191906000526020600020905b815481529060010190602001808311610a2857829003601f168201915b5050505050905090565b6000610a5a82611b71565b610a765760405162461bcd60e51b815260040161098c90612e2f565b506000908152600460205260409020546001600160a01b031690565b600d8054610a9f90613193565b80601f0160208091040260200160405190810160405280929190818152602001828054610acb90613193565b8015610b185780601f10610aed57610100808354040283529160200191610b18565b820191906000526020600020905b815481529060010190602001808311610afb57829003601f168201915b505050505081565b6000610b2b8261105f565b9050806001600160a01b0316836001600160a01b03161415610b5f5760405162461bcd60e51b815260040161098c90612f78565b806001600160a01b0316610b71611b6d565b6001600160a01b03161480610b8d5750610b8d816108bb611b6d565b610ba95760405162461bcd60e51b815260040161098c90612c3f565b610bb38383611b8e565b505050565b600f5481565b60085490565b60156020526000908152604090205481565b60115481565b610bed610be7611b6d565b82611bfc565b610c095760405162461bcd60e51b815260040161098c90612fe5565b610bb3838383611c81565b6000610c1f836110a1565b8210610c3d5760405162461bcd60e51b815260040161098c906129fb565b506001600160a01b03919091166000908152600660209081526040808320938352929052205490565b33610c708261105f565b6001600160a01b031614610c965760405162461bcd60e51b815260040161098c90612e01565b60008181526016602052604090819020805460ff191660011790555133907f6aa3eac93d079e5e100b1029be716caa33586c96aa4baac390669fb5c2a2121290610ce19084906130f0565b60405180910390a250565b6001600160a01b031660009081526014602052604090205460ff1690565b610d12611b6d565b6001600160a01b0316610d2361114b565b6001600160a01b031614610d495760405162461bcd60e51b815260040161098c90612e7b565b60138054911515620100000262ff000019909216919091179055565b610d6d611b6d565b6001600160a01b0316610d7e61114b565b6001600160a01b031614610da45760405162461bcd60e51b815260040161098c90612e7b565b6000610dae61114b565b6001600160a01b031647604051610dc490612945565b60006040518083038185875af1925050503d8060008114610e01576040519150601f19603f3d011682016040523d82523d6000602084013e610e06565b606091505b5050905080610e1457600080fd5b50565b610bb383838360405180602001604052806000815250611712565b60606000610e3f836110a1565b905060008167ffffffffffffffff811115610e6a57634e487b7160e01b600052604160045260246000fd5b604051908082528060200260200182016040528015610e93578160200160208202803683370190505b50905060005b82811015610ee857610eab8582610c14565b828281518110610ecb57634e487b7160e01b600052603260045260246000fd5b602090810291909101015280610ee0816131ce565b915050610e99565b509392505050565b610ef8611b6d565b6001600160a01b0316610f0961114b565b6001600160a01b031614610f2f5760405162461bcd60e51b815260040161098c90612e7b565b600f55565b610f3c611b6d565b6001600160a01b0316610f4d61114b565b6001600160a01b031614610f735760405162461bcd60e51b815260040161098c90612e7b565b6001600160a01b03166000908152601460205260409020805460ff19166001179055565b6000610fa1610bbe565b8210610fbf5760405162461bcd60e51b815260040161098c90613036565b60088281548110610fe057634e487b7160e01b600052603260045260246000fd5b90600052602060002001549050919050565b601354610100900460ff1681565b611008611b6d565b6001600160a01b031661101961114b565b6001600160a01b03161461103f5760405162461bcd60e51b815260040161098c90612e7b565b805161105290600b90602084019061244a565b5050565b60135460ff1681565b6000818152600260205260408120546001600160a01b0316806109455760405162461bcd60e51b815260040161098c90612ce6565b600b8054610a9f90613193565b60006001600160a01b0382166110c95760405162461bcd60e51b815260040161098c90612c9c565b506001600160a01b031660009081526003602052604090205490565b6110ed611b6d565b6001600160a01b03166110fe61114b565b6001600160a01b0316146111245760405162461bcd60e51b815260040161098c90612e7b565b61112e6000611dae565b565b60185481565b60176020526000908152604090205460ff1681565b600a546001600160a01b031690565b611162611b6d565b6001600160a01b031661117361114b565b6001600160a01b0316146111995760405162461bcd60e51b815260040161098c90612e7b565b60135460ff16156111bc5760405162461bcd60e51b815260040161098c90612eb0565b6001600160a01b0381166111e25760405162461bcd60e51b815260040161098c90612d2f565b60005b828110156113425760006111f7610bbe565b601054909150611208826001613105565b11156112265760405162461bcd60e51b815260040161098c90612d58565b6017600086868581811061124a57634e487b7160e01b600052603260045260246000fd5b602090810292909201358352508101919091526040016000205460ff16156112845760405162461bcd60e51b815260040161098c90612b90565b6001600160a01b03831660009081526015602052604081208054916112a8836131ce565b91905055506001601760008787868181106112d357634e487b7160e01b600052603260045260246000fd5b90506020020135815260200190815260200160002060006101000a81548160ff02191690831515021790555061132f8386868581811061132357634e487b7160e01b600052603260045260246000fd5b90506020020135611e00565b508061133a816131ce565b9150506111e5565b50505050565b6060600180546109cc90613193565b60135462010000900460ff1681565b60135460ff16156113895760405162461bcd60e51b815260040161098c90612eb0565b6000611393610bbe565b9050600082116113b55760405162461bcd60e51b815260040161098c906130b9565b6011548211156113d75760405162461bcd60e51b815260040161098c90612d88565b6010546113e48383613105565b11156114025760405162461bcd60e51b815260040161098c90612d58565b61140a61114b565b6001600160a01b0316336001600160a01b0316146114f85760135462010000900460ff161515600114156114cb5761144133610cec565b61145d5760405162461bcd60e51b815260040161098c90613082565b3360009081526015602052604090205460125461147a8483613105565b11156114985760405162461bcd60e51b815260040161098c90612b15565b82600e546114a69190613131565b3410156114c55760405162461bcd60e51b815260040161098c90612fb9565b506114f8565b81600f546114d99190613131565b3410156114f85760405162461bcd60e51b815260040161098c90612fb9565b60015b828111610bb35760188054906000611512836131ce565b91905055505b60185460009081526017602052604090205460ff161515600114156115515760188054906000611547836131ce565b9190505550611518565b33600090815260156020526040812080549161156c836131ce565b9091555050601880546000908152601760205260409020805460ff191660011790555461159a903390611e00565b806115a4816131ce565b9150506114fb565b6115b4611b6d565b6001600160a01b0316826001600160a01b031614156115e55760405162461bcd60e51b815260040161098c90612bbc565b80600560006115f2611b6d565b6001600160a01b03908116825260208083019390935260409182016000908120918716808252919093529120805460ff191692151592909217909155611636611b6d565b6001600160a01b03167f17307eab39ab6107e8899845ad3d59bd9653f200f220920489ca2b5937696c318360405161166e91906129dd565b60405180910390a35050565b611682611b6d565b6001600160a01b031661169361114b565b6001600160a01b0316146116b95760405162461bcd60e51b815260040161098c90612e7b565b6013805461ff001916610100179055565b6116d2611b6d565b6001600160a01b03166116e361114b565b6001600160a01b0316146117095760405162461bcd60e51b815260040161098c90612e7b565b610e1481611abf565b61172361171d611b6d565b83611bfc565b61173f5760405162461bcd60e51b815260040161098c90612fe5565b61134284848484611e1a565b60125481565b600c8054610a9f90613193565b606061176982611b71565b6117855760405162461bcd60e51b815260040161098c90612f29565b601354610100900460ff1661182657600d80546117a190613193565b80601f01602080910402602001604051908101604052809291908181526020018280546117cd90613193565b801561181a5780601f106117ef5761010080835404028352916020019161181a565b820191906000526020600020905b8154815290600101906020018083116117fd57829003601f168201915b50505050509050610948565b6000611830611e4d565b90506000815111611850576040518060200160405280600081525061187e565b8061185a84611e5c565b600c60405160200161186e93929190612883565b6040516020818303038152906040525b9392505050565b61188d611b6d565b6001600160a01b031661189e61114b565b6001600160a01b0316146118c45760405162461bcd60e51b815260040161098c90612e7b565b601255565b6118d1611b6d565b6001600160a01b03166118e261114b565b6001600160a01b0316146119085760405162461bcd60e51b815260040161098c90612e7b565b600e55565b60105481565b61191b611b6d565b6001600160a01b031661192c61114b565b6001600160a01b0316146119525760405162461bcd60e51b815260040161098c90612e7b565b805161105290600c90602084019061244a565b60166020526000908152604090205460ff1681565b600e5481565b6001600160a01b03918216600090815260056020908152604080832093909416825291909152205460ff1690565b6119b6611b6d565b6001600160a01b03166119c761114b565b6001600160a01b0316146119ed5760405162461bcd60e51b815260040161098c90612e7b565b60005b81811015610bb357600160146000858585818110611a1e57634e487b7160e01b600052603260045260246000fd5b9050602002016020810190611a3391906125c3565b6001600160a01b031681526020810191909152604001600020805460ff191691151591909117905580611a65816131ce565b9150506119f0565b611a75611b6d565b6001600160a01b0316611a8661114b565b6001600160a01b031614611aac5760405162461bcd60e51b815260040161098c90612e7b565b805161105290600d90602084019061244a565b611ac7611b6d565b6001600160a01b0316611ad861114b565b6001600160a01b031614611afe5760405162461bcd60e51b815260040161098c90612e7b565b6001600160a01b038116611b245760405162461bcd60e51b815260040161098c90612a98565b610e1481611dae565b60006001600160e01b031982166380ac58cd60e01b1480611b5e57506001600160e01b03198216635b5e139f60e01b145b80610945575061094582611f77565b3390565b6000908152600260205260409020546001600160a01b0316151590565b600081815260046020526040902080546001600160a01b0319166001600160a01b0384169081179091558190611bc38261105f565b6001600160a01b03167f8c5be1e5ebec7d5bd14f71427d1e84f3dd0314c0f7b2291e5b200ac8c7c3b92560405160405180910390a45050565b6000611c0782611b71565b611c235760405162461bcd60e51b815260040161098c90612bf3565b6000611c2e8361105f565b9050806001600160a01b0316846001600160a01b03161480611c695750836001600160a01b0316611c5e84610a4f565b6001600160a01b0316145b80611c795750611c798185611980565b949350505050565b826001600160a01b0316611c948261105f565b6001600160a01b031614611cba5760405162461bcd60e51b815260040161098c90612ee0565b6001600160a01b038216611ce05760405162461bcd60e51b815260040161098c90612b4c565b611ceb838383611f90565b611cf6600082611b8e565b6001600160a01b0383166000908152600360205260408120805460019290611d1f908490613150565b90915550506001600160a01b0382166000908152600360205260408120805460019290611d4d908490613105565b909155505060008181526002602052604080822080546001600160a01b0319166001600160a01b0386811691821790925591518493918716917fddf252ad1be2c89b69c2b068fc378daa952ba7f163c4a11628f55a4df523b3ef91a4505050565b600a80546001600160a01b038381166001600160a01b0319831681179093556040519116919082907f8be0079c531659141344cd1fd0a4f28419497f9722a3daafe3b4186f6b6457e090600090a35050565b611052828260405180602001604052806000815250612019565b611e25848484611c81565b611e318484848461204c565b6113425760405162461bcd60e51b815260040161098c90612a46565b6060600b80546109cc90613193565b606081611e8157506040805180820190915260018152600360fc1b6020820152610948565b8160005b8115611eab5780611e95816131ce565b9150611ea49050600a8361311d565b9150611e85565b60008167ffffffffffffffff811115611ed457634e487b7160e01b600052604160045260246000fd5b6040519080825280601f01601f191660200182016040528015611efe576020820181803683370190505b5090505b8415611c7957611f13600183613150565b9150611f20600a866131e9565b611f2b906030613105565b60f81b818381518110611f4e57634e487b7160e01b600052603260045260246000fd5b60200101906001600160f81b031916908160001a905350611f70600a8661311d565b9450611f02565b6001600160e01b031981166301ffc9a760e01b14919050565b611f9b838383610bb3565b6001600160a01b038316611fb757611fb281612167565b611fda565b816001600160a01b0316836001600160a01b031614611fda57611fda83826121ab565b6001600160a01b038216611ff657611ff181612248565b610bb3565b826001600160a01b0316826001600160a01b031614610bb357610bb38282612321565b6120238383612365565b612030600084848461204c565b610bb35760405162461bcd60e51b815260040161098c90612a46565b6000612060846001600160a01b0316612444565b1561215c57836001600160a01b031663150b7a0261207c611b6d565b8786866040518563ffffffff1660e01b815260040161209e949392919061295c565b602060405180830381600087803b1580156120b857600080fd5b505af19250505080156120e8575060408051601f3d908101601f191682019092526120e5918101906127dd565b60015b612142573d808015612116576040519150601f19603f3d011682016040523d82523d6000602084013e61211b565b606091505b50805161213a5760405162461bcd60e51b815260040161098c90612a46565b805181602001fd5b6001600160e01b031916630a85bd0160e11b149050611c79565b506001949350505050565b600880546000838152600960205260408120829055600182018355919091527ff3f7a9fe364faab93b216da50a3214154f22a0a2b415b23a84c8169e8b636ee30155565b600060016121b8846110a1565b6121c29190613150565b600083815260076020526040902054909150808214612215576001600160a01b03841660009081526006602090815260408083208584528252808320548484528184208190558352600790915290208190555b5060009182526007602090815260408084208490556001600160a01b039094168352600681528383209183525290812055565b60085460009061225a90600190613150565b6000838152600960205260408120546008805493945090928490811061229057634e487b7160e01b600052603260045260246000fd5b9060005260206000200154905080600883815481106122bf57634e487b7160e01b600052603260045260246000fd5b600091825260208083209091019290925582815260099091526040808220849055858252812055600880548061230557634e487b7160e01b600052603160045260246000fd5b6001900381819060005260206000200160009055905550505050565b600061232c836110a1565b6001600160a01b039093166000908152600660209081526040808320868452825280832085905593825260079052919091209190915550565b6001600160a01b03821661238b5760405162461bcd60e51b815260040161098c90612dcc565b61239481611b71565b156123b15760405162461bcd60e51b815260040161098c90612ade565b6123bd60008383611f90565b6001600160a01b03821660009081526003602052604081208054600192906123e6908490613105565b909155505060008181526002602052604080822080546001600160a01b0319166001600160a01b03861690811790915590518392907fddf252ad1be2c89b69c2b068fc378daa952ba7f163c4a11628f55a4df523b3ef908290a45050565b3b151590565b82805461245690613193565b90600052602060002090601f01602090048101928261247857600085556124be565b82601f1061249157805160ff19168380011785556124be565b828001600101855582156124be579182015b828111156124be5782518255916020019190600101906124a3565b506124ca9291506124ce565b5090565b5b808211156124ca57600081556001016124cf565b600067ffffffffffffffff808411156124fe576124fe613229565b604051601f8501601f19168101602001828111828210171561252257612522613229565b60405284815291508183850186101561253a57600080fd5b8484602083013760006020868301015250509392505050565b80356001600160a01b038116811461094857600080fd5b60008083601f84011261257b578081fd5b50813567ffffffffffffffff811115612592578182fd5b60208301915083602080830285010111156125ac57600080fd5b9250929050565b8035801515811461094857600080fd5b6000602082840312156125d4578081fd5b61187e82612553565b600080604083850312156125ef578081fd5b6125f883612553565b915061260660208401612553565b90509250929050565b600080600060608486031215612623578081fd5b61262c84612553565b925061263a60208501612553565b9150604084013590509250925092565b6000806000806080858703121561265f578081fd5b61266885612553565b935061267660208601612553565b925060408501359150606085013567ffffffffffffffff811115612698578182fd5b8501601f810187136126a8578182fd5b6126b7878235602084016124e3565b91505092959194509250565b600080604083850312156126d5578182fd5b6126de83612553565b9150612606602084016125b3565b600080604083850312156126fe578182fd5b61270783612553565b946020939093013593505050565b60008060208385031215612727578182fd5b823567ffffffffffffffff81111561273d578283fd5b6127498582860161256a565b90969095509350505050565b600080600060408486031215612769578283fd5b833567ffffffffffffffff81111561277f578384fd5b61278b8682870161256a565b909450925061279e905060208501612553565b90509250925092565b6000602082840312156127b8578081fd5b61187e826125b3565b6000602082840312156127d2578081fd5b813561187e8161323f565b6000602082840312156127ee578081fd5b815161187e8161323f565b60006020828403121561280a578081fd5b813567ffffffffffffffff811115612820578182fd5b8201601f81018413612830578182fd5b611c79848235602084016124e3565b600060208284031215612850578081fd5b5035919050565b6000815180845261286f816020860160208601613167565b601f01601f19169290920160200192915050565b6000845160206128968285838a01613167565b8551918401916128a98184848a01613167565b85549201918390600281046001808316806128c557607f831692505b8583108114156128e357634e487b7160e01b88526022600452602488fd5b8080156128f7576001811461290857612934565b60ff19851688528388019550612934565b6129118b6130f9565b895b8581101561292c5781548a820152908401908801612913565b505083880195505b50939b9a5050505050505050505050565b90565b6001600160a01b0391909116815260200190565b6001600160a01b038581168252841660208201526040810183905260806060820181905260009061298f90830184612857565b9695505050505050565b6020808252825182820181905260009190848201906040850190845b818110156129d1578351835292840192918401916001016129b5565b50909695505050505050565b901515815260200190565b60006020825261187e6020830184612857565b6020808252602b908201527f455243373231456e756d657261626c653a206f776e657220696e646578206f7560408201526a74206f6620626f756e647360a81b606082015260800190565b60208082526032908201527f4552433732313a207472616e7366657220746f206e6f6e20455243373231526560408201527131b2b4bb32b91034b6b83632b6b2b73a32b960711b606082015260800190565b60208082526026908201527f4f776e61626c653a206e6577206f776e657220697320746865207a65726f206160408201526564647265737360d01b606082015260800190565b6020808252601c908201527f4552433732313a20746f6b656e20616c7265616479206d696e74656400000000604082015260600190565b6020808252601c908201527f6d6178204e465420706572206164647265737320657863656564656400000000604082015260600190565b60208082526024908201527f4552433732313a207472616e7366657220746f20746865207a65726f206164646040820152637265737360e01b606082015260800190565b60208082526012908201527113919508185b1c9958591e481b5a5b9d195960721b604082015260600190565b60208082526019908201527f4552433732313a20617070726f766520746f2063616c6c657200000000000000604082015260600190565b6020808252602c908201527f4552433732313a206f70657261746f7220717565727920666f72206e6f6e657860408201526b34b9ba32b73a103a37b5b2b760a11b606082015260800190565b60208082526038908201527f4552433732313a20617070726f76652063616c6c6572206973206e6f74206f7760408201527f6e6572206e6f7220617070726f76656420666f7220616c6c0000000000000000606082015260800190565b6020808252602a908201527f4552433732313a2062616c616e636520717565727920666f7220746865207a65604082015269726f206164647265737360b01b606082015260800190565b60208082526029908201527f4552433732313a206f776e657220717565727920666f72206e6f6e657869737460408201526832b73a103a37b5b2b760b91b606082015260800190565b6020808252600f908201526e696e76616c6964206164647265737360881b604082015260600190565b6020808252601690820152751b585e08139195081b1a5b5a5d08195e18d95959195960521b604082015260600190565b60208082526024908201527f6d6178206d696e7420616d6f756e74207065722073657373696f6e20657863656040820152631959195960e21b606082015260800190565b6020808252818101527f4552433732313a206d696e7420746f20746865207a65726f2061646472657373604082015260600190565b6020808252601490820152736f6e6c79206f776e65722063616e20636c61696d60601b604082015260600190565b6020808252602c908201527f4552433732313a20617070726f76656420717565727920666f72206e6f6e657860408201526b34b9ba32b73a103a37b5b2b760a11b606082015260800190565b6020808252818101527f4f776e61626c653a2063616c6c6572206973206e6f7420746865206f776e6572604082015260600190565b6020808252601690820152751d1a194818dbdb9d1c9858dd081a5cc81c185d5cd95960521b604082015260600190565b60208082526029908201527f4552433732313a207472616e73666572206f6620746f6b656e2074686174206960408201526839903737ba1037bbb760b91b606082015260800190565b6020808252602f908201527f4552433732314d657461646174613a2055524920717565727920666f72206e6f60408201526e3732bc34b9ba32b73a103a37b5b2b760891b606082015260800190565b60208082526021908201527f4552433732313a20617070726f76616c20746f2063757272656e74206f776e656040820152603960f91b606082015260800190565b602080825260129082015271696e73756666696369656e742066756e647360701b604082015260600190565b60208082526031908201527f4552433732313a207472616e736665722063616c6c6572206973206e6f74206f6040820152701ddb995c881b9bdc88185c1c1c9bdd9959607a1b606082015260800190565b6020808252602c908201527f455243373231456e756d657261626c653a20676c6f62616c20696e646578206f60408201526b7574206f6620626f756e647360a01b606082015260800190565b60208082526017908201527f75736572206973206e6f742077686974656c6973746564000000000000000000604082015260600190565b6020808252601b908201527f6e65656420746f206d696e74206174206c656173742031204e46540000000000604082015260600190565b90815260200190565b60009081526020902090565b60008219821115613118576131186131fd565b500190565b60008261312c5761312c613213565b500490565b600081600019048311821515161561314b5761314b6131fd565b500290565b600082821015613162576131626131fd565b500390565b60005b8381101561318257818101518382015260200161316a565b838111156113425750506000910152565b6002810460018216806131a757607f821691505b602082108114156131c857634e487b7160e01b600052602260045260246000fd5b50919050565b60006000198214156131e2576131e26131fd565b5060010190565b6000826131f8576131f8613213565b500690565b634e487b7160e01b600052601160045260246000fd5b634e487b7160e01b600052601260045260246000fd5b634e487b7160e01b600052604160045260246000fd5b6001600160e01b031981168114610e1457600080fdfea26469706673582212204ddeb73de7ef2d7ff76d4e95467c11fbdd5bc2e0a674954af0fc74dac365cf9d64736f6c63430008000033",
  "immutableReferences": {},
  "source": "\n// SPDX-License-Identifier: GPL-3.0\n\n\n\n/*\n\n\n                                                                                                               \n,--------.,--.                  ,---.  ,--.       ,--.             ,-----.,--.   ,--.,--------.,------.        \n'--.  .--'|  ,---.  ,---.      /  O  \\ |  | ,---. |  ,---.  ,--,--.|  |) /_\\  `.'  / '--.  .--'|  .---' ,---.  \n   |  |   |  .-.  || .-. :    |  .-.  ||  || .-. ||  .-.  |' ,-.  ||  .-.  \\'.    /     |  |   |  `--, (  .-'  \n   |  |   |  | |  |\\   --.    |  | |  ||  || '-' '|  | |  |\\ '-'  ||  '--' /  |  |      |  |   |  `---..-'  `) \n   `--'   `--' `--' `----'    `--' `--'`--'|  |-' `--' `--' `--`--'`------'   `--'      `--'   `------'`----'  \n                                           `--'                                                                \n,--.                 ,---.                   ,--.  ,--.                                                        \n|  |-.,--. ,--.     /  O  \\ ,--,--,--.,--.--.`--',-'  '-. ,--,--.                                              \n| .-. '\\  '  /     |  .-.  ||        ||  .--',--.'-.  .-'' ,-.  |                                              \n| `-' | \\   '      |  | |  ||  |  |  ||  |   |  |  |  |  \\ '-'  |                                              \n `---'.-'  /       `--' `--'`--`--`--'`--'   `--'  `--'   `--`--'                                              \n      `---'                                                                                                    \n\nPopElon\nWWW..THEALPHABYTES.COM\nhttps://discord.gg/pSBMtAttbJ\nwww.twitter.com/artbyamrita\n\n\n*/\n\n\n\n// File: contracts/AlphaBytes.sol\n\n\npragma solidity >=0.7.0 <0.9.0;\n\nimport \"./library/Address.sol\";\nimport \"./library/Context.sol\";\nimport \"./library/ERC165.sol\";\nimport \"./library/ERC721.sol\";\nimport \"./library/ERC721Enumerable.sol\";\nimport \"./library/IERC165.sol\";\nimport \"./library/IERC721.sol\";\nimport \"./library/IERC721Enumerable.sol\";\nimport \"./library/IERC721Metadata.sol\";\nimport \"./library/IERC721Receiver.sol\";\nimport \"./library/Ownable.sol\";\nimport \"./library/Strings.sol\";\nimport \"./library/ERC20.sol\";\n\n\ncontract AlphaBytes is ERC721Enumerable, Ownable {\n  using Strings for uint256;\n\n  string public baseURI;\n  string public baseExtension = \".json\";\n  string public notRevealedUri;\n  uint256 public whitelistCost = 0.8 ether; \n  uint256 public cost = 1.0 ether;\n  uint256 public maxSupply = 145;\n  uint256 public maxMintAmount = 3;\n  uint256 public nftPerAddressLimit = 145;\n  bool public paused = false;\n  bool public revealed = false;\n  bool public onlyWhitelisted = true;\n  mapping(address => bool) public whitelistedAddresses;\n  mapping(address => uint256) public addressMintedBalance;\n  mapping(uint256 => bool) public claimed;\n  mapping(uint256 => bool) public minted;\n  uint256 public totalsupply = 0;\n\n  event Claimed(uint256 tokenId, address indexed account);\n\n  constructor(\n    string memory _name,\n    string memory _symbol,\n    string memory _initBaseURI,\n    string memory _initNotRevealedUri\n  ) ERC721(_name, _symbol) {\n    setBaseURI(_initBaseURI);\n    setNotRevealedURI(_initNotRevealedUri);\n  }\n\n  // internal\n  function _baseURI() internal view virtual override returns (string memory) {\n    return baseURI;\n  }\n\n  // public\n  function mint(uint256 _mintAmount) public payable {\n    require(!paused, \"the contract is paused\");\n    uint256 supply = totalSupply();\n    require(_mintAmount > 0, \"need to mint at least 1 NFT\");\n    require(_mintAmount <= maxMintAmount, \"max mint amount per session exceeded\");\n    require(supply + _mintAmount <= maxSupply, \"max NFT limit exceeded\");\n\n    if (msg.sender != owner()) {\n        if(onlyWhitelisted == true) {\n            require(isWhitelisted(msg.sender), \"user is not whitelisted\");\n            uint256 ownerMintedCount = addressMintedBalance[msg.sender];\n            require(ownerMintedCount + _mintAmount <= nftPerAddressLimit, \"max NFT per address exceeded\");\n            require(msg.value >= whitelistCost * _mintAmount, \"insufficient funds\");\n        }else {\n          require(msg.value >= cost * _mintAmount, \"insufficient funds\");\n        }\n    }\n    \n    for (uint256 i = 1; i <= _mintAmount; i++) {\n      totalsupply++;\n      while ( minted[totalsupply] == true)\n      {\n        totalsupply++;\n      }\n      addressMintedBalance[msg.sender]++;\n      \n      minted[totalsupply] = true;\n      _safeMint(msg.sender, totalsupply);\n      \n    }\n  }\n  \n  function gift(uint256[] calldata _tokenIds, address _to) public onlyOwner {\n    require(!paused, \"the contract is paused\");\n    require(_to != address(0), \"invalid address\");\n    for(uint i=0;i<_tokenIds.length;i++){\n      uint256 supply = totalSupply();\n      require(supply + 1 <= maxSupply, \"max NFT limit exceeded\");\n\n      require(minted[_tokenIds[i]] == false, \"NFT already minted\");\n      addressMintedBalance[_to]++;\n      minted[_tokenIds[i]] = true;\n      _safeMint(_to, _tokenIds[i]);\n    }\n  }\n\n  function isWhitelisted(address _user) public view returns (bool) {\n    return  whitelistedAddresses[_user];\n  }\n\n  function claim(uint256 _tokenId) public {\n    require(ownerOf(_tokenId) == msg.sender, \"only owner can claim\");\n    claimed[_tokenId] = true;\n\n    emit Claimed(_tokenId, msg.sender);\n  }\n\n  function walletOfOwner(address _owner)\n    public\n    view\n    returns (uint256[] memory)\n  {\n    uint256 ownerTokenCount = balanceOf(_owner);\n    uint256[] memory tokenIds = new uint256[](ownerTokenCount);\n    for (uint256 i; i < ownerTokenCount; i++) {\n      tokenIds[i] = tokenOfOwnerByIndex(_owner, i);\n    }\n    return tokenIds;\n  }\n\n  function tokenURI(uint256 tokenId)\n    public\n    view\n    virtual\n    override\n    returns (string memory)\n  {\n    require(\n      _exists(tokenId),\n      \"ERC721Metadata: URI query for nonexistent token\"\n    );\n    \n    if(revealed == false) {\n        return notRevealedUri;\n    }\n\n    string memory currentBaseURI = _baseURI();\n    return bytes(currentBaseURI).length > 0\n        ? string(abi.encodePacked(currentBaseURI, tokenId.toString(), baseExtension))\n        : \"\";\n  }\n\n  //only owner\n  function reveal() public onlyOwner {\n      revealed = true;\n  }\n  \n  function setNftPerAddressLimit(uint256 _limit) public onlyOwner {\n    nftPerAddressLimit = _limit;\n  }\n\n  function changeOwner(address newOwner) public onlyOwner {\n    transferOwnership(newOwner);\n  }\n\n  function setCost(uint256 _newCost) public onlyOwner {\n    cost = _newCost;\n  }\n\n  function setWhitelistCost(uint256 _newCost) public onlyOwner {\n    whitelistCost = _newCost;\n  }\n//   function setmaxMintAmount(uint256 _newmaxMintAmount) public onlyOwner {\n//     maxMintAmount = _newmaxMintAmount;\n//   }\n\n  function setBaseURI(string memory _newBaseURI) public onlyOwner {\n    baseURI = _newBaseURI;\n  }\n\n  function setBaseExtension(string memory _newBaseExtension) public onlyOwner {\n    baseExtension = _newBaseExtension;\n  }\n  \n  function setNotRevealedURI(string memory _notRevealedURI) public onlyOwner {\n    notRevealedUri = _notRevealedURI;\n  }\n\n  function pause(bool _state) public onlyOwner {\n    paused = _state;\n  }\n  \n  function setOnlyWhitelisted(bool _state) public onlyOwner {\n    onlyWhitelisted = _state;\n  }\n  \n  function whitelistUsers(address[] calldata _users) public onlyOwner {\n    for(uint i=0;i<_users.length;i++){\n        whitelistedAddresses[_users[i]]=true;\n    }\n  }\n function whitelistUser(address _user) public onlyOwner {\n        whitelistedAddresses[_user]=true;    \n  }\n  function withdraw() public payable onlyOwner {\n\n    (bool os, ) = payable(owner()).call{value: address(this).balance}(\"\");\n    require(os);\n\n  }\n}\n",
  "sourcePath": "/Users/futjrn/Documents/Hera/amrita/nft/contracts/AlphaBytes.sol",
  "compiler": {
    "name": "solc",
    "version": "0.8.0+commit.c7dfd78e.Emscripten.clang"
  },
  "schemaVersion": "3.4.4",
  "updatedAt": "2022-03-26T20:32:41.476Z",
  "devdoc": {
    "kind": "dev",
    "methods": {
      "approve(address,uint256)": {
        "details": "See {IERC721-approve}."
      },
      "balanceOf(address)": {
        "details": "See {IERC721-balanceOf}."
      },
      "getApproved(uint256)": {
        "details": "See {IERC721-getApproved}."
      },
      "isApprovedForAll(address,address)": {
        "details": "See {IERC721-isApprovedForAll}."
      },
      "name()": {
        "details": "See {IERC721Metadata-name}."
      },
      "owner()": {
        "details": "Returns the address of the current owner."
      },
      "ownerOf(uint256)": {
        "details": "See {IERC721-ownerOf}."
      },
      "renounceOwnership()": {
        "details": "Leaves the contract without owner. It will not be possible to call `onlyOwner` functions anymore. Can only be called by the current owner. NOTE: Renouncing ownership will leave the contract without an owner, thereby removing any functionality that is only available to the owner."
      },
      "safeTransferFrom(address,address,uint256)": {
        "details": "See {IERC721-safeTransferFrom}."
      },
      "safeTransferFrom(address,address,uint256,bytes)": {
        "details": "See {IERC721-safeTransferFrom}."
      },
      "setApprovalForAll(address,bool)": {
        "details": "See {IERC721-setApprovalForAll}."
      },
      "supportsInterface(bytes4)": {
        "details": "See {IERC165-supportsInterface}."
      },
      "symbol()": {
        "details": "See {IERC721Metadata-symbol}."
      },
      "tokenByIndex(uint256)": {
        "details": "See {IERC721Enumerable-tokenByIndex}."
      },
      "tokenOfOwnerByIndex(address,uint256)": {
        "details": "See {IERC721Enumerable-tokenOfOwnerByIndex}."
      },
      "tokenURI(uint256)": {
        "details": "See {IERC721Metadata-tokenURI}."
      },
      "totalSupply()": {
        "details": "See {IERC721Enumerable-totalSupply}."
      },
      "transferFrom(address,address,uint256)": {
        "details": "See {IERC721-transferFrom}."
      },
      "transferOwnership(address)": {
        "details": "Transfers ownership of the contract to a new account (`newOwner`). Can only be called by the current owner."
      }
    },
    "version": 1
  },
  "userdoc": {
    "kind": "user",
    "methods": {},
    "version": 1
  }
}